:020000020000FC
:100000000C9400091F932F9310E02FEF10936100C1
:1000100017BB11BB22B92F911F9108950F930FEFBA
:100020000DBF00E10EBF0F9140E00F931F935F9350
:10003000542F4695469505E3102F403208F040278F
:10004000440F403208F04027440F403208F0402768
:0C005000452B5F911F910F914F93089575
:101200000C94020040E40E941500009B0C940E0018
:1012100000E0009364000FEF00936300019BFECF9A
:1012200000E00093630000B307FF0C9417091F93BD
:101230002F932DE31FEF211711F02F911F910F9383
:00000001FF
