S0120000557365724D6F64756C652E737265630D
S113000045C0000030C100005EC000005CC00000BC
S11300105AC0000058C0000056C0000054C0000080
S113002052C0000050C000004EC000004CC0000090
S11300304AC0000048C0000046C0000044C00000A0
S113004042C0000040C000003EC000003CC00000B0
S11300503AC0000038C0000036C0000034C00000C0
S113006032C0000030C000002EC000002CC00000D0
S11300702AC0000028C000003AC1000024C00000CB
S113008022C0000020C000001EC0000011241FBEBA
S1130090CFEFD0E1DEBFCDBF11E0A0E0B1E0E2E6FA
S11300A0F4E000E00BBF02C007900D92A831B10745
S11300B0D9F722E0A8E1B1E001C01D92A931B2074D
S11300C0E1F7C6D1CCC19CCF83B982B3806882BB2F
S11300D085E88A95F1F7000082B38F7782BB85E8C3
S11300E08A95F1F70000089592B39F7D92BBECCFFF
S11300F00895813049F028F0823049F0833051F07E
S11301000BC080E8F1DF08C080ECEEDF05C084E9B5
S1130110EBDF02C084EDE8DF87EE93E00197F1F7AF
S113012000C00000089581E0DFDF87EE93E00197CF
S1130130F1F700C00000089592B3906292BBC4CF5F
S11301400895FF920F931F93CF93DF938C01F62EA4
S1130150862FCFDFC1E0D0E012C08E3741F4219664
S1130160F801EC0FFD1F80818053E6DF07C08A3061
S113017021F4F3948F2DBDDF01C0DEDF2196F80159
S1130180EC0FFD1F80818111E8CFDF91CF911F918A
S11301900F91FF9008950F931F93CF93DF938C01DA
S11301A070E0685F7F4FD62FDD0FDD0FDD0FC0E0FD
S11301B009C08C2F8D0F98DFF801EC0FF11D8081A1
S11301C0BBDFCF5FC830A8F3DF91CF911F910F91B0
S11301D0089583B38E70843031F0883011F080E05C
S11301E003C082E001C081E090E026C045B3692FDE
S11301F070E06C5F7F4F21E030E002C0220F331FBC
S11302006A95E2F7E22F522F5095452345BB43B33D
S1130210682F70E06F5F7F4F50E002C0559547959F
S11302206A95E2F740FD04C025B3E22BE5BB06C0A6
S113023035B3232B25BB9F5F9430C0F240E1849FEC
S113024090011124892F822B089506C0E7EEF3E074
S11302503197F1F700C0000090919B0095FFF6CF15
S113026080939C0008951F920F920FB60F92112451
S11302700BB60F922F933F934F935F936F937F939C
S11302808F939F93AF93BF93CF93EF93FF9385B7D0
S11302908F7D85BF9EDF282F2F7082958F7030E071
S11302A0F901EE0FFF1FE20FF31FEF5FFE4FE80FA0
S11302B0F11DC0818C2F90E0C8DF63E085E191E0FF
S11302C040DF8C2F39DFFF91EF91CF91BF91AF9138
S11302D09F918F917F916F915F914F913F912F915A
S11302E00F900BBE0F900FBE0F901F9018951F928A
S11302F00F920FB60F9211240BB60F922F933F93C8
S11303004F935F936F937F938F939F93AF93BF9319
S1130310CF93DF93EF93FF9385B78F7D85BF809154
S11303209C008E33B1F5E0911901F0E0E65EFE4FDA
S113033010821092190180911A018C3359F4F3DE62
S113034060E08AE191E0FDDE1092180181E0809383
S1130350000129C0CAE1D1E08981EEDE8A81ECDEA8
S11303608B81EADE809118018D5F809318018031C2
S1130370D0F010921801809100018F5F80930001EA
S1130380B8DE80910001843070F0CDDE109200015F
S11303900AC0E091190191E09E0F90931901F0E0D9
S11303A0E65EFE4F8083FF91EF91DF91CF91BF9185
S11303B0AF919F918F917F916F915F914F913F91F9
S11303C02F910F900BBE0F900FBE0F901F9018959A
S11303D0CF93DF93CDB7DEB728970FB6F894DEBF7F
S11303E00FBECDBF86E080939D00109298008AE1F5
S11303F08093990088E980939A0078948FEF82B96A
S113040080EE81BB88E370DE8CE06EDE86E06CDE1D
S113041080EF84BB85BB81E089BFEAE6F0E08081A0
S11304208260808388E0EDE0F1E0DE0111960190C6
S11304300D928A95E1F760E0CE010196ACDE289634
S11304400FB6F894DEBF0FBECDBFDF91CF910895F4
S1130450BFDF789485B7806285BF8895FACFF8941A
S1050460FFCFC8
S11304620133323136353439383723302E00040221
S10B04721F1F0204003E3E00BE
S9030000FC
