:1000000045C0000061C000005FC000005DC000008E
:100010005BC0000059C0000057C0000055C0000080
:1000200053C0000051C000004FC000004DC0000090
:100030004BC0000049C000007FC2000045C0000066
:1000400043C0000041C000003FC000003DC00000B0
:100050003BC000002BC1000037C0000035C00000CD
:1000600033C0000031C000002FC000002DC00000D0
:100070002BC0000038C20000F1C2000025C0000003
:1000800023C0000021C000001FC0000011241FBEBB
:10009000CFEFD0E1DEBFCDBF11E0A0E0B1E0E6E000
:1000A000F1E100E00BBF02C007900D92A436B1074A
:1000B000D9F721E0A4E6B1E001C01D92A037B20754
:1000C000E1F723D30C9481089BCF83B982B3806876
:1000D00082BB85E88A95F1F7000082B38F7782BBF7
:1000E00085E88A95F1F70000089592B39F7D92BB51
:1000F000ECCF0895813049F028F0823049F0833008
:1001000051F00BC080E8F1DF08C080ECEEDF05C0E5
:1001100084E9EBDF02C084EDE8DF87EE93E001972E
:10012000F1F700C00000089581E0DFDF87EE93E083
:100130000197F1F700C00000089592B3906292BB5E
:10014000C4CF0895FF920F931F93CF93DF938C0139
:10015000F62E862FCFDFC1E0D0E012C08E3741F4FB
:100160002196F801EC0FFD1F80818053E6DF07C068
:100170008A3021F4F3948F2DBDDF01C0DEDF21969C
:10018000F801EC0FFD1F80818111E8CFDF91CF9145
:100190001F910F91FF9008950F931F93CF93DF93BB
:1001A0008C0170E0685F7F4FD62FDD0FDD0FDD0F14
:1001B000C0E009C08C2F8D0F98DFF801EC0FF11D06
:1001C0008081BBDFCF5FC830A8F3DF91CF911F9153
:1001D0000F910895982F907E96959695903210F0F5
:1001E00025E3922720E030E007C0990F903210F00D
:1001F00045E394272F5F3F4F22303105B4F3892B1D
:100200000895CF93C82F807EE5DF91E0C81390E07A
:10021000892FCF910895982F907E262F2295220F17
:10022000220F207C66956695603210F085E3682782
:1002300070E0660F771F422F441F4427441F642B32
:10024000220F603210F085E36827462F50E0440FFC
:10025000551F221F2227221F242B203210F085E356
:10026000282760E070E00FC030E0220F331F492FD5
:10027000441F4427441F242B990F203210F085E39C
:1002800028276F5F7F4F6830710574F3822F0895C0
:1002900006C0EFE0F7E23197F1F700C0000090915F
:1002A0009B0095FFF6CF80939C0008951F920F92BC
:1002B0000FB60F9211248F9385B78F7D85BF81E094
:1002C000809364018F910F900FBE0F901F9018952F
:1002D0001092640197B1907E97B997B1892B87B935
:1002E00086B1806486B904C085B7806285BF889571
:1002F000809164018823C1F384B195B19695879567
:10030000929582958F7089279F708927089580EF35
:10031000809361008093620086B18E6886B980E424
:1003200087B980E0D5CF08951F93CF93DF9310E076
:100330000BC0C12FD0E0812FCBDFCC0FDD1FC85900
:10034000DE4F998388831F5F143098F3DF91CF913C
:100350001F9108950F931F93CF93DF93CDB7DEB70F
:10036000E2970FB6F894DEBF0FBECDBFDDDE2FEFF4
:1003700080E792E0215080409040E1F700C000000B
:1003800080916E0190916F01843191052CF460E0B1
:1003900080E191E0D7DE22C09F938F93E8E6F1E001
:1003A00085818F9384818F9383818F9382818F93B3
:1003B00081818F9380818F9382E391E09F938F93CC
:1003C0008E010F5F1F4F1F930F93C0D360E0C801D2
:1003D000B9DE0FB6F894DEBF0FBECDBFE2960FB602
:1003E000F894DEBF0FBECDBFDF91CF911F910F916B
:1003F0000895CF9399DE60E08BE491E0A3DEC0E046
:100400002DC02C2F30E0C901880F991F829592953D
:10041000907F9827807F9827220F331FF901E85992
:10042000FE4F90818068892B8093660191E09093C4
:1004300065012EDF8DE08A95F1F70000609166017D
:1004400080E2E9DE806224DF04C085B7806285BF78
:100450008895809165018130C1F3CF5FC43088F207
:1004600079DFCF91089560916A0170916B01072E39
:10047000000C880B990B54D220E030E048EF51E497
:10048000B9D120E030E040E752E4D6D29B01AC0184
:1004900060E070E088EC92E448D120E030E040EA8F
:1004A00051E443D10FD2962F80E064E670E027D369
:1004B000609561BF83B7816083BF0895D4DF88B33F
:1004C000846088BB88B3877F88BB83B7816083BF24
:1004D000089588B38B7F88BB88B3877F88BB83B739
:1004E0008E7F83BF08951F920F920FB60F92112433
:1004F0000BB60F922F933F934F935F936F937F931E
:100500008F939F93AF93BF93EF93FF9310928A00C3
:10051000E0DFFF91EF91BF91AF919F918F917F911C
:100520006F915F914F913F912F910F900BBE0F9064
:100530000FBE0F901F9018951F920F920FB60F923B
:1005400011240BB60F922F933F934F935F936F93AA
:100550007F938F939F93AF93BF93CF93EF93FF932B
:100560001EBC7894E1DE45DF84ED9EEC909389001B
:1005700080938800C5E0C0938A00A0DF80E697E6FC
:100580009DBD8CBDCEBDFF91EF91CF91BF91AF913D
:100590009F918F917F916F915F914F913F912F919B
:1005A0000F900BBE0F900FBE0F901F90189580E616
:1005B00097E69DBD8CBD84E087BF80937D0085E07C
:1005C0008EBD08958FEF87BB88E783BF0895CF93D3
:1005D000DF93CDB7DEB760970FB6F894DEBF0FBEDE
:1005E000CDBF86E080939D00109298008AE18093B1
:1005F000990088E980939A0078948FEF82B980EE11
:1006000081BB88E372DD8CE070DD86E06EDD88E022
:10061000E0E0F1E0DE01119601900D928A95E1F79C
:1006200060E0CE010196B8DD88E0E8E0F1E0DE01AF
:10063000199601900D928A95E1F761E0CE01099635
:10064000ABDD65DE71DE86DEBDDF60960FB6F89449
:10065000DEBF0FBECDBFDF91CF9108951F920F92E5
:100660000FB60F9211240BB60F922F933F934F9317
:100670005F936F937F938F939F93AF93BF93CF932A
:10068000EF93FF9385B78F7D85BFC0919C008C2F22
:10069000B8DD81110AC080EE9DDDFADD8FE493ECB8
:1006A0000197F1F700C000001CC0C07E71F480917A
:1006B000670181118CDF81E08093670110926601F0
:1006C0001092650180E4E4DD0CC0C03E21F480910D
:1006D0006601DEDD06C0C03421F41092660110927E
:1006E0006501FF91EF91CF91BF91AF919F918F9154
:1006F0007F916F915F914F913F912F910F900BBE22
:100700000F900FBE0F901F90189561DF04C085B742
:10071000806285BF8895809167018823C1F347DF98
:1007200085B7806285BF8895FBCF5058BB27AA2725
:100730000ED048C139D130F03ED120F031F49F3F86
:1007400011F41EF42EC10EF4E095E7FB24C1E92F4D
:100750004AD180F3BA17620773078407950718F028
:1007600071F49EF562C10EF4E0950B2EBA2FA02D08
:100770000B01B90190010C01CA01A0011124FF274E
:10078000591B99F0593F50F4503E68F11A16F04049
:10079000A22F232F342F4427585FF3CF4695379548
:1007A0002795A795F0405395C9F77EF41F16BA0B0D
:1007B000620B730B840BBAF09150A1F0FF0FBB1FBB
:1007C000661F771F881FC2F70EC0BA0F621F731F04
:1007D000841F48F4879577956795B795F7959E3F61
:1007E00008F0B3CF9395880F08F09927EE0F9795EF
:1007F000879508950CD0E6C0DED040F0D5D030F01B
:1008000021F45F3F19F0C7C0511110C1CAC0EBD02D
:1008100098F39923C9F35523B1F3951B550BBB27C7
:10082000AA2762177307840738F09F5F5F4F220F74
:10083000331F441FAA1FA9F333D00E2E3AF0E0E86D
:1008400030D091505040E695001CCAF729D0FE2FB9
:1008500027D0660F771F881FBB1F2617370748074B
:10086000AB07B0E809F0BB0B802DBF01FF27935801
:100870005F4F2AF09E3F510568F08DC0D7C05F3FA3
:10088000ECF3983EDCF3869577956795B795F795E9
:100890009F5FC9F7880F911D9695879597F90895E1
:1008A000E1E0660F771F881FBB1F6217730784077D
:1008B000BA0720F0621B730B840BBA0BEE1F88F78C
:1008C000E095089598D088F09F5790F0B92F992718
:1008D000B751A0F0D1F0660F771F881F991F1AF04B
:1008E000BA95C9F712C0B13081F09FD0B1E0089538
:1008F0009CC0672F782F8827B85F39F0B93FCCF3B9
:10090000869577956795B395D9F73EF49095809540
:10091000709561957F4F8F4F9F4F0895E89409C060
:1009200097FB3EF490958095709561957F4F8F4F22
:100930009F4F9923A9F0F92F96E9BB279395F69538
:10094000879577956795B795F111F8CFFAF4BB0FB6
:1009500011F460FF1BC06F5F7F4F8F4F9F4F16C01A
:10096000882311F096E911C0772321F09EE8872FA4
:10097000762F05C0662371F096E8862F70E060E060
:100980002AF09A95660F771F881FDAF7880F9695D9
:10099000879597F9089597F99F6780E870E060E080
:1009A00008959FEF80EC089500240A941616170608
:1009B00018060906089500240A9412161306140650
:1009C00005060895092E0394000C11F4882352F0B3
:1009D000BB0F40F4BF2B11F460FF04C06F5F7F4F6B
:1009E0008F4F9F4F089557FD9058440F551F59F052
:1009F0005F3F71F04795880F97FB991F61F09F3F0C
:100A000079F087950895121613061406551FF2CF34
:100A10004695F1DF08C0161617061806991FF1CF84
:100A200086957105610508940895E894BB276627AB
:100A30007727CB0197F908950BD0C4CFB5DF28F005
:100A4000BADF18F0952309F0A6CFABCF1124EECF73
:100A5000CADFA0F3959FD1F3950F50E0551F629F19
:100A6000F001729FBB27F00DB11D639FAA27F00D07
:100A7000B11DAA1F649F6627B00DA11D661F829F2E
:100A80002227B00DA11D621F739FB00DA11D621F13
:100A9000839FA00D611D221F749F3327A00D611D30
:100AA000231F849F600D211D822F762F6A2F112412
:100AB0009F5750408AF0E1F088234AF0EE0FFF1F65
:100AC000BB1F661F771F881F91505040A9F79E3F9C
:100AD000510570F060CFAACF5F3FECF3983EDCF396
:100AE000869577956795B795F795E7959F5FC1F7D9
:100AF000FE2B880F911D9695879597F9089597FB82
:100B0000072E16F4009406D077FD08D00BD007FC12
:100B100005D03EF4909581959F4F0895709561950D
:100B20007F4F0895AA1BBB1B51E107C0AA1FBB1F23
:100B3000A617B70710F0A61BB70B881F991F5A9569
:100B4000A9F780959095BC01CD0108950F931F934F
:100B5000CF93DF93CDB7DEB72E970FB6F894DEBFF5
:100B60000FBECDBF0D891E8986E08C831A83098351
:100B70008FEF9FE79E838D83AE01475E5F4F6F8946
:100B8000788DCE01019610D0EF81F885E00FF11F2E
:100B900010822E960FB6F894DEBF0FBECDBFDF9148
:100BA000CF911F910F9108952F923F924F925F9294
:100BB0006F927F928F929F92AF92BF92CF92DF926D
:100BC000EF92FF920F931F93CF93DF93CDB7DEB7D2
:100BD0002B970FB6F894DEBF0FBECDBF6C017B0123
:100BE0008A01FC0117821682838181FFBFC1CE0179
:100BF00001963C01F6019381F70193FD859193FFE6
:100C000081917F01882309F4ADC1853239F493FDC8
:100C1000859193FF81917F01853221F4B60190E0A7
:100C2000D6D1E8CF912C212C312CFFE1F315D8F04F
:100C30008B3279F038F4803279F08332A1F4232DAD
:100C400020611DC08D3261F0803369F4232D216055
:100C500016C0832D8260382EE32DE4603E2E2AC01C
:100C6000F32DF8601DC037FC2DC020ED280F2A3071
:100C700040F08E32B9F436FC75C1232D2064322E3B
:100C800019C036FE06C08AE0989E200D1124922ECF
:100C900011C0EAE02E9E200D1124222EF32DF062C9
:100CA0003F2E08C08C3621F4832D8068382E02C078
:100CB000883641F4F70193FD859193FF81917F017F
:100CC0008111B3CF982F9F7D9554933028F40C5FFA
:100CD0001F4F9FE399830DC0833631F0833771F046
:100CE000833509F055C020C0F801808189830E5FEB
:100CF0001F4F88248394912C530112C02801F2E0E5
:100D00004F0E511CF801A080B18036FE03C0692D42
:100D100070E002C06FEF7FEFC5014ED14C01820140
:100D2000F32DFF773F2E15C0280122E0420E511C03
:100D3000F801A080B18036FE03C0692D70E002C0CA
:100D40006FEF7FEFC5012DD14C01F32DF0683F2EE1
:100D5000820133FC19C0822D90E088169906A0F418
:100D6000B60180E290E033D12A94F5CFF50137FC4B
:100D7000859137FE81915F01B60190E028D1211065
:100D80002A9421E0821A91088114910479F7E1C034
:100D9000843611F0893639F5F80137FE07C06081D5
:100DA0007181828193810C5F1F4F08C060817181C6
:100DB000072E000C880B990B0E5F1F4FF32DFF764B
:100DC0003F2E97FF09C090958095709561957F4F54
:100DD0008F4F9F4FF0683F2E2AE030E0A30133D1C0
:100DE000882E861844C0853731F4232D2F7EB22EED
:100DF0002AE030E025C0932D997FB92E8F36C1F0BF
:100E000018F4883579F0AEC0803719F0883721F0B2
:100E1000A9C0E92FE061BE2EB4FE0DC0FB2DF46029
:100E2000BF2E09C034FE0AC0292F2660B22E06C08C
:100E300028E030E005C020E130E002C020E132E0EF
:100E4000F801B7FE07C060817181828193810C5FD8
:100E50001F4F06C06081718180E090E00E5F1F4FE0
:100E6000A301F1D0882E8618FB2DFF773F2E36FE8A
:100E70000DC0232D2E7FA22E891458F434FE0BC0F2
:100E800032FC09C0832D8E7EA82E05C0B82CA32C61
:100E900003C0B82C01C0B92CA4FE0FC0FE01E80DA0
:100EA000F11D8081803321F49A2D997EA92E09C0ED
:100EB000A2FE06C0B394B39404C08A2D867809F0CC
:100EC000B394A3FC10C0A0FE06C0B21480F4280C9A
:100ED000922C9B180DC0B21458F4B60180E290E039
:100EE00076D0B394F8CFB21418F42B1802C0982C13
:100EF000212CA4FE0FC0B60180E390E068D0A2FED2
:100F000016C0A1FC03C088E790E002C088E590E02D
:100F1000B6010CC08A2D867851F0A1FE02C08BE28A
:100F200001C080E2A7FC8DE2B60190E050D08914A8
:100F300030F4B60180E390E04AD09A94F8CF8A94D6
:100F4000F301E80DF11D8081B60190E040D08110E1
:100F5000F6CF222009F44ECEB60180E290E037D0E1
:100F60002A94F7CFF6018681978102C08FEF9FEF19
:100F70002B960FB6F894DEBF0FBECDBFDF91CF9199
:100F80001F910F91FF90EF90DF90CF90BF90AF90A7
:100F90009F908F907F906F905F904F903F902F9099
:100FA0000895FC010590615070400110D8F78095BC
:100FB00090958E0F9F1F0895FC0161507040019025
:100FC0000110D8F7809590958E0F9F1F08950F936D
:100FD0001F93CF93DF93FB01238121FD03C08FEF8C
:100FE0009FEF2CC022FF16C0468157812481358196
:100FF0004217530744F4A081B1819D012F5F3F4FF9
:10100000318320838C93268137812F5F3F4F378335
:10101000268314C08B01EC01FB010084F185E02DD7
:101020000995892BE1F6D80116968D919C91179719
:10103000019617969C938E931697CE01DF91CF91D0
:101040001F910F910895FA01AA27283051F12031FC
:1010500081F1E8946F936E7F6E5F7F4F8F4F9F4F4C
:10106000AF4FB1E03ED0B4E03CD0670F781F891F8E
:101070009A1FA11D680F791F8A1F911DA11D6A0F5C
:10108000711D811D911DA11D20D009F468943F910F
:101090002AE0269F11243019305D3193DEF6CF010E
:1010A0000895462F4770405D4193B3E00FD0C9F7D4
:1010B000F6CF462F4F70405D4A3318F0495D31FD41
:1010C0004052419302D0A9F7EACFB4E0A695979594
:1010D000879577956795BA95C9F70097610571056A
:1010E00008959B01AC010A2E0694579547953795B4
:1010F0002795BA95C9F7620F731F841F951FA01D0E
:061100000895F894FFCFF2
:101106000004021F1F0204000E1B1111111F1F1FD6
:101116003C7E31204368616E676520626174746548
:1011260072790A2020696D6D6564696174656C79F0
:1011360021003C543D25782020204D3D25780A5736
:101146003D2578202020423D2578003C7E305365A1
:101156006E64696E672073656E736F720A206461D0
:0411660074610000B0
:00000001FF
