:100000004EC0000069C0000067C0000065C000006D
:1000100063C0000061C000005FC000005DC0000060
:100020005BC0000059C0000057C0000055C0000070
:1000300053C0000051C00000F9C200004DC00000D4
:100040004BC0000049C000006AC4000045C0000069
:1000500077C1000041C000003FC000003DC000006B
:100060003BC0000039C0000037C0000035C00000B0
:1000700033C0000029C1000048C300002DC00000AB
:100080002BC0000029C0000027C00000870487049F
:1000900083047004850472047404760478041124C3
:1000A0001FBECFEFD0E1DEBFCDBF11E0A0E0B1E0D9
:1000B000E2EFFAE000E00BBF02C007900D92A23E13
:1000C000B107D9F72FE0A2EEB1E001C01D92A6372B
:1000D000B207E1F7D6D40BC593CF982F907E9695B3
:1000E0009695903238F025E3922704C025E39227B5
:1000F000892B0895990F903210F025E39227990FDC
:100100009032A0F7F5CFCF93C82F807EE6DF91E045
:10011000C81390E0892FCF910895482F407E962FE5
:100120009295990F990F907C66956695603210F0C4
:1001300085E36827660F892F881F8827881F682B0B
:10014000990F603210F085E36827660F991F992791
:10015000991F862F892B803288F095E389270EC05E
:10016000880F942F991F9927991F892B440F80324C
:1001700008F085272150310999F7089528E030E0EB
:1001800055E3EECFCF93C82FC8DFCF7191E0C813EE
:1001900090E0892F8195CF9108958091EB01909106
:1001A000EC01019680382CE0920728F49093EC0142
:1001B0008093EB0108951092EC011092EB010895E9
:1001C000811110C08091E7019091E8010097F1F052
:1001D0009DBD8091E7018CBD1FBC85E08EBD84E094
:1001E00087BF08958091E7019091E801009771F031
:1001F000909389008091E7018093880010928B0092
:1002000085E080938A0084E080937D0008958111C9
:100210000AC08EB58E7F8EBD8EB58B7F8EBD87B7A3
:100220008B7F87BF0895EAE8F0E080818E7F80832E
:1002300080818B7F8083EDE7F0E080818B7F8083FE
:100240000895FB011182982F92959F7090839A30A8
:1002500018F4905D908302C0995C90838F708183C5
:100260008A3018F4805D818302C0895C81838CE2CE
:10027000828313820895B89A80E885BF96E09093B0
:100280009500109290008AE189B928ED2AB99093DF
:100290009D00109298008093990088E980939A00BD
:1002A0007894089590919B0095FD0BC0EBE9F0E0E8
:1002B000A7EEB3E01197F1F700C00000908195FF21
:1002C000F7CF80939C0008951F920F920FB60F9264
:1002D00011240BB60F922F933F934F935F936F931D
:1002E0007F938F939F93AF93BF93EF93FF9385B7C4
:1002F0008F7D85BF80EE90E0D5DF1092EA011092ED
:10030000E901FF91EF91BF91AF919F918F917F9103
:100310006F915F914F913F912F910F900BBE0F9076
:100320000FBE0F901F9018955D9908C0E7EEF3E09F
:100330003197F1F700C000005D9BF8CF8CB90895AC
:100340001F920F920FB60F9211240BB60F922F939C
:100350003F934F935F936F937F938F939F93AF934D
:10036000BF93EF93FF9385B78F7D85BF9091E40195
:10037000E92FF0E0EC50FE4F80818823B9F0209106
:10038000E301222399F09F5F9093E401CDDFE09198
:10039000E4018091E201E81731F0F0E0EC50FE4F0B
:1003A0008081811107C01092E30104C01092E40122
:1003B0001092E201FF91EF91BF91AF919F918F91C8
:1003C0007F916F915F914F913F912F910F900BBE55
:1003D0000F900FBE0F901F9018951F93CF93DF9330
:1003E000EC018091E301882341F085B7806285BFED
:1003F00088958091E3018111F8CF11E01093E3011A
:10040000BE0184EF91E06CD3A4EFB1E0FD01019057
:100410000020E9F731978EE390E091838083FE011D
:1004200001900020E9F7EC1BEF5FE093E201F0E0C0
:10043000ED50FE4F10821093E4018C9175DFDF9137
:10044000CF911F910895DF92EF92FF920F931F9328
:10045000CF93DF93CDB7DEB729970FB6F894DEBF01
:100460000FBECDBF91E09093E6012091EB0130915A
:10047000EC01232B81F480E091E0AFDF2FEF84E3E8
:100480009CE0215080409040E1F700C000008AE0ED
:1004900091E0A3DF78C0811146C08DE291E09DDF3D
:1004A000EFE7F8E321E0E150F0402040E1F700C041
:1004B00000008091EB019091EC01892B09F461C05F
:1004C0000F2EF3EFEF2EF2E0FF2EF02D00E010E004
:1004D0000F2EFEE2DF2EF02DF70181917F01BE018C
:1004E0006F5F7F4F8F71ADDEDD8289819A81AB8135
:1004F000BC818E839F83A887B987CE0105966DDF67
:10050000FFE728E381E0F15020408040E1F700C0A0
:1005100000000F5F1F4F8091EB019091EC010817D5
:100520001907D0F22EC08CE391E057DF9FE7E8E394
:10053000F1E09150E040F040E1F700C00000E091B0
:10054000EB01F091EC01EE50FD4F8081BE016F5F39
:100550007F4F8F7176DE8EE28D8389819A81AB81A8
:10056000BC818E839F83A887B987CE01059635DF2E
:100570002FE788E391E0215080409040E1F700C0F0
:1005800000001092E60129960FB6F894DEBF0FBE68
:10059000CDBFDF91CF911F910F91FF90EF90DF9032
:1005A0000895E091EB01F091EC01ED50FD4F808357
:1005B000F4DD78948091E601811117C08091EB0100
:1005C0009091EC0183709927892B79F48AE491E06A
:1005D00004DF2FEF84E39CE0215080409040E1F75E
:1005E00000C000008AE091E0F8CE089580E075DD5B
:1005F0008093EA0157DE81E08093E90180E0E0DD4D
:100600002FE78AE196E0215080409040E1F700C05A
:1006100000008FE591E0E1DE2FE78AE196E02150CE
:1006200080409040E1F700C0000008951F920F92B3
:100630000FB60F9211240BB60F922F933F934F9347
:100640005F936F937F938F939F93AF93BF93EF933A
:10065000FF9385B78F7D85BFC9DFFF91EF91BF9174
:10066000AF919F918F917F916F915F914F913F914A
:100670002F910F900BBE0F900FBE0F901F901895EB
:10068000CF93DF93C82F88233CF48093EA0181E065
:100690008093E90195DD36C081E0B9DDD091EA01B2
:1006A000DD23C4F46D2F8C2F6DDD8F3F69F4C07E88
:1006B000C03241F48D2F75DF1092E90180E40DDD29
:1006C000F1DD20C093DF1EC01092E90180EE05DD50
:1006D000E9DD18C08C2F17DD8F3F89F4C07EC03450
:1006E00029F41092E90180E092DD0CC0C03E51F483
:1006F0008091E901813031F48D2FD4DD03C080EE8B
:10070000ECDCD0DDDF91CF9108951F920F920FB6F0
:100710000F9211240BB60F922F933F934F935F9339
:100720006F937F938F939F93AF93BF93EF93FF93B9
:1007300085B78F7D85BF80919C0090E0A1DFFF9100
:10074000EF91BF91AF919F918F917F916F915F9149
:100750004F913F912F910F900BBE0F900FBE0F90B6
:100760001F901895E19B08C0E7EEF3E03197F1F791
:1007700000C00000E199F8CF1FBA8EBB81E08CBBAE
:100780008DB30895E19B08C0E7EEF3E03197F1F7F0
:1007900000C00000E199F8CF1FBA8EBB6DBB84E0AA
:1007A0008CBB82E08CBB08950F931F93CF93DF9394
:1007B00080E090E0D7DF8093750F8093730FD1E0D6
:1007C000C0E000E010E002C0CF5FDF5F8C2F90E060
:1007D0000196C8DF082BC11103C0102F0027F4CFEA
:1007E000D23090F383E090E0BDDF8093740F80916E
:1007F000750F882361F081E791E0EFDD1092E80149
:100800001092E7018091750F811106C00DC0109301
:10081000E8010093E70108C085B7806285BF88952D
:100820008091750F8111F8CF8091730F8823C1F0EB
:1008300088E991E0D2DD2FE78AE196E021508040FF
:100840009040E1F700C000008091730F882341F0D1
:1008500085B7806285BF88958091730F8111F8CF2D
:100860008FE493EC0197F1F700C000008DEB91E06D
:10087000B4DD9FE72AE186E0915020408040E1F717
:1008800000C0000060E080E090E07CDF6091E80163
:1008900081E090E077DF6091E70182E090E072DF35
:1008A0006091740F83E090E06DDF8091E70190919B
:1008B000E8019195819591099093E8018093E70172
:1008C000DF91CF911F910F910895E091740F8E2FBA
:1008D00090E089309105D8F4FC01EA5BFF4FD8C065
:1008E00082E007C084E005C085E003C086E001C067
:1008F00087E0C09A886098E10FB6F894A89591BDFA
:100900000FBE81BD089581E0F4CF83E0F2CF08955A
:10091000B2DC4ADF6BDE8AE091E05FCD08951F9282
:100920000F920FB60F9211240BB60F920F931F93D5
:100930002F933F934F935F936F937F938F939F93E7
:10094000AF93BF93EF93FF9385B78F7D85BFA89536
:10095000E091E50181E08E0F8093E5019CB1F0E02C
:10096000E151FE4F9083833010F01092E501E09149
:10097000E501F0E0E251FE4F80818E3209F06CC05B
:100980008091750F882389F1A091EF0180ED8A0F86
:10099000893008F05FC0B0E0D097AA0FBB1FAA0F44
:1009A000BB1FAA0FBB1F20E432E44FE050E079D018
:1009B0008B019C01992324F401501C4F2F4F3F4F72
:1009C000D901C801072E7AE0B595A7959795879527
:1009D0007A95D1F7702D9093E8018093E7011092FA
:1009E000750F8EEC91E0F9DC35C08091730F882390
:1009F00069F08091EF018053893060F58093740F26
:100A00001092730F8EEC91E0E8DC24C08091EF012E
:100A1000823341F0833351F0813351F4789480E094
:100A200012DD18C0789481E00EDD14C071DF12C0B1
:100A3000789481ED91E0D1DC1092E5012FEF84E311
:100A40009CE0215080409040E1F700C000008AE027
:100A500091E0C3DC1092E501FF91EF91BF91AF915E
:100A60009F918F917F916F915F914F913F912F91C6
:100A70001F910F910F900BBE0F900FBE0F901F9004
:100A8000189546DF22DF85B7806285BF8895FBCF4A
:100A9000EE0FFF1F0024001C0BBE0790F691E02D07
:100AA0000994B7FF04C003D0821B930B089509D0AB
:100AB000A59F900DB49F900DA49F800D911D1124B2
:100AC0000895A29FB001B39FC001A39F700D811D27
:100AD0001124911DB29F700D811D1124911D089547
:100AE000FB01DC0101900D920020E1F70895F894DC
:020AF000FFCF36
:100AF2003C4E6F20646174610A003C312D4D656D7E
:100B02002044756D700A322D4C61737420456E74E9
:100B120072790A332D52657374617274003C4D65AB
:100B22006D6F72792044756D703A0A003C4C6173A6
:100B32007420456E7472793A0A003C7E304E6577B5
:100B42002044617461205265636569766564003C86
:100B5200524553455454494E472053454E534F52E4
:100B6200003C74696D656F75742064757261746997
:100B72006F6E0A28302D3829283020746F2064695E
:100B82007361626C65293A003C5761746368646FF3
:100B9200672074696D65720A28302D382928302043
:100BA200746F2064697361626C65293A003C536119
:100BB20076696E672073657474696E6773003E3E72
:100BC200003C496E76616C696420636F6D6D616E85
:020BD2006400BD
:00000001FF
