S01200004C61624D6F64756C65332E737265636A
S113000045C0000053C0000051C000004FC00000B4
S11300104DC000004BC0000049C0000047C00000B4
S113002045C0000043C0000041C000003FC00000C4
S11300303DC000003BC0000039C0000037C00000D4
S113004035C0000033C000005AC100002FC00000BA
S1130050ADC100002BC0000029C0000027C0000073
S113006025C0000023C0000021C000001FC0000004
S11300701DC000001BC00000D5C1000017C0000057
S113008015C0000013C0000011C0000011241FBEE1
S1130090CFEFD0E1DEBFCDBF25E0A0E0B1E001C0ED
S11300A01D92A031B207E1F730D239C2A9CF982FFF
S11300B0907E96959695903210F025E3922720E055
S11300C030E007C0990F903210F045E394272F5F7A
S11300D03F4F22303105B4F3892B0895CF93C82FB5
S11300E0E6DFC81711F080E001C08FEFCF910895CB
S11300F060910501982F907E262F2295220F220FC2
S1130100207C66956695603210F085E3682770E080
S1130110660F771F422F441F4427441F642B220F6E
S1130120603210F085E36827462F50E0440F551FD6
S11301302295269526952370242B203210F085E3F2
S1130140282760E070E00FC030E0220F331F492FF2
S1130150441F4427441F242B990F203210F085E3B9
S113016028276F5F7F4F6930710574F3822F0895DC
S11301708091060190910701019690930701809365
S113018006018035944120F0109207011092060177
S1130190089583B90895882389F01AC0FC01E85FA3
S11301A0FC4F208128BB2FEF39E648E12150304035
S11301B04040E1F700C00000019602C080E090E0FA
S11301C020910601309107018217930738F30895AF
S11301D0813041F4E0910601F0910701E95FFC4FA1
S11301E0808188BB089580E885BF96E09093950050
S11301F01092900083E389B928ED2AB990939D0069
S1130200109298008093990088E980939A00089549
S1130210E0910601F0910701E85FFC4F8083A8CFCD
S1130220089509C02FEF30E792E02150304090400C
S1130230E1F700C0000090919B0095FFF3CF8093FD
S11302409C00089509C02FEF30E792E02150304020
S11302509040E1F700C000005D9BF5CF8CB9089594
S113026080E025DF80930501DCDF81E080930401D9
S11302700895CF93DF93C82FD4DFCC2344F4C093E5
S113028005018CECCEDF81E08093040135C0D09170
S11302900501DD23CCF48C2F2BDF8F3F69F4C07E66
S11302A0C03241F48D2FB4DF1092040180E4FFDEEC
S11302B0B8DF22C0D5DF20C0109204018AEAB1DF82
S11302C080EEF5DEAEDF18C08C2F08DF8F3F79F4A7
S11302D0C07EC03419F4109204010EC0C03E61F413
S11302E080910401813041F48D2F53DF05C08BEBE5
S11302F098DF80EEDCDE95DFDF91CF9108951F92C9
S11303000F920FB60F9211240BB60F922F933F93B7
S11303104F935F936F937F938F939F93AF93BF9309
S1130320EF93FF9385B78F7D85BFE091030181E053
S11303308E0F80930301F0E09CB1E65FFE4F908343
S113034090E0FC01E75FFE4F20812E32E1F4FC01D6
S1130350E85FFE4F8081823361F018F4813331F01D
S113036010C0833349F0843351F00BC080E013DFB5
S113037008C081E010DF05C036DF72DF02C08FEFF6
S113038061DF10920301FF91EF91BF91AF919F91B3
S11303908F917F916F915F914F913F912F910F902A
S11303A00BBE0F900FBE0F901F9018951F920F92C7
S11303B00FB60F9211240BB60F922F933F934F93C6
S11303C05F936F937F938F939F93AF93BF93EF93B9
S11303D0FF9390910201E92FF0E0E75FFD4F8081E8
S11303E08E3249F020910101222329F09F5F9093DE
S11303F0020128DF04C01092020110920101FF9152
S1130400EF91BF91AF919F918F917F916F915F9188
S11304104F913F912F910F900BBE0F900FBE0F90F5
S11304201F9018951F920F920FB60F9211240BB6BE
S11304300F922F933F934F935F936F937F938F9379
S11304409F93AF93BF93EF93FF9385B78F7D85BF42
S113045080910001833010F010920001E0910001BE
S113046081E08E0F80930001F0E090919C00E85FA2
S1130470FE4F90838230B1F58091080190ED980F82
S11304809A3018F48295807F14C09FE9980F9630B3
S113049030F490E0875591098295807F0AC09FEBE4
S11304A0980F963028F490E0C7978295807F01C01A
S11304B080E09091090120ED290F2A3018F4890F6A
S11304C080530DC02FE9290F263018F4890F875562
S11304D006C02FEB290F263010F4890F8753109292
S11304E00001C7DEFF91EF91BF91AF919F918F9172
S11304F07F916F915F914F913F912F910F900BBE20
S11305000F900FBE0F901F9018956DDEA9DE80E846
S113051080930501EDDD85DE80E090E00895F89498
S1050520FFCF07
S9030000FC
