S01200004C61624D6F64756C65332E737265636A
S11300004EC0000069C0000067C0000065C0000069
S113001063C0000061C000005FC000005DC000005C
S11300205BC0000059C0000057C0000055C000006C
S113003053C0000051C000009CC200004DC000002D
S11300404BC0000049C00000BEC2000045C0000013
S11300507BC1000041C000003FC000003DC0000063
S11300603BC0000039C0000037C0000035C00000AC
S113007033C000002DC1000092C300002DC0000059
S11300802BC0000029C0000027C00000CA04CA0415
S1130090C604B304C804B504B704B904BB041124EA
S11300A01FBECFEFD0E1DEBFCDBF12E0A0E0B1E0D4
S11300B0E8E2FAE000E00BBF02C007900D92A4331F
S11300C0B107D9F72FE0A4E3B2E001C01D92A83C28
S11300D0B207E1F760D4A6C493CF982F907E96958B
S11300E09695903238F025E3922704C025E39227B1
S11300F0892B0895990F903210F025E39227990FD8
S11301009032A0F7F5CFCF93C82FE7DF91E0C81363
S113011090E0892F8195CF910895682F6F71909108
S11301203C02807E292F2295220F220F207C969557
S11301309695903210F035E39327990F322F331FA1
S11301403327331F932B220F903210F035E393277C
S1130150990F221F2227221F922B9032A8F025E309
S1130160922712C0990F482F441F4427441F942BF1
S1130170880F903208F095272150310999F781E0D2
S1130180961380E08195089528E030E055E3EACFA6
S113019080913D0290913E02019680382CE09207B6
S11301A028F490933E0280933D02089510923E02FB
S11301B010923D020895811110C0809139029091EE
S11301C03A020097F1F09DBD809139028CBD1FBCAD
S11301D085E08EBD84E087BF0895809139029091B7
S11301E03A02009771F090938900809139028093CC
S11301F0880010928B0085E080938A0084E08093CD
S11302007D00089581110AC08EB58E7F8EBD8EB596
S11302108B7F8EBD87B78B7F87BF0895EAE8F0E0B8
S113022080818E7F808380818B7F8083EDE7F0E007
S113023080818B7F80830895FB011182982F929592
S11302409F7090839A3018F4905D908302C0995CFB
S113025090838F7081838A3018F4805D818302C01B
S1130260895C81838CE2828313820895B89A80E842
S113027085BF96E0909395001092900083E389B92E
S113028028ED2AB990939D001092980080939900CC
S113029088E980939A0078940895E0913D02F09162
S11302A03E02EB5BFC4F808373CF089590919B00DB
S11302B095FD0BC0EBE9F0E0AFECB7E01197F1F777
S11302C000C00000908195FFF7CF80939C000895B3
S11302D01F920F920FB60F9211240BB60F922F9309
S11302E03F934F935F936F937F938F939F93AF93BA
S11302F0BF93EF93FF9385B78F7D85BF80EE90E02A
S1130300D5DF10923C0210923B02FF91EF91BF9116
S1130310AF919F918F917F916F915F914F913F9199
S11303202F910F900BBE0F900FBE0F901F9018953A
S11303305D9908C0EFECF7E03197F1F700C00000D9
S11303405D9BF8CF8CB908951F920F920FB60F9250
S113035011240BB60F922F933F934F935F936F9398
S11303607F938F939F93AF93BF93EF93FF9385B73F
S11303708F7D85BF90913702E92FF0E0EA5BFD4F56
S113038080818823B9F020913602222399F09F5F5F
S113039090933702CDDFE091370280913502E81760
S11303A031F0F0E0EA5BFD4F8081811107C01092CB
S11303B0360204C01092370210923502FF91EF9179
S11303C0BF91AF919F918F917F916F915F914F9169
S11303D03F912F910F900BBE0F900FBE0F901F9067
S11303E01895FC01908180ED890F8A3020F4892FC3
S11303F08295807F13C08FE9890F863028F4929507
S1130400907F80E9890F0AC08FEB890F863028F42A
S11304109295907F80E9890F01C080E0918120ED61
S1130420290F2A3010F4820F08952FE9290F26305E
S113043018F49755890F08952FEB290F263010F4DF
S11304409753890F0895CF93DF93EC01809136027F
S1130450882341F085B7806285BF889580913602F4
S11304608111F8CF81E080933602BE0186E492E0E8
S1130470D2D2FE0101900020E9F7EC1BE093350293
S1130480F0E0EB5BFD4F10821092370280E250DF08
S1130490DF91CF910895EF92FF920F931F93CF9323
S11304A0DF9300D000D0CDB7DEB720913D0230916C
S11304B03E02232B21F480E491E0C5DF41C0811189
S11304C02EC089E491E0BFDF80913D0290913E020D
S11304D0892BB1F10F2EF5E4EF2EF3E0FF2EF02D72
S11304E000E010E0BE016F5F7F4FF70181917F0153
S11304F0A3DECE010196A7DFFFEF29E688E1F150E4
S113050020408040E1F700C000000F5F1F4F809142
S11305103D0290913E020817190720F311C08DE5A2
S113052091E091DFE0913D02F0913E02EC5BFC4FE3
S1130530BE016F5F7F4F80817FDECE01019683DF36
S11305400F900F900F900F90DF91CF911F910F910B
S1130550FF90EF90089580E0C0DD80933C02A6DE1A
S113056081E080933B0280E026DE8AE691E06BCF57
S113057008951F920F920FB60F9211240BB60F928B
S11305802F933F934F935F936F937F938F939F9397
S1130590AF93BF93EF93FF9385B78F7D85BFDBDF69
S11305A0FF91EF91BF91AF919F918F917F916F9147
S11305B05F914F913F912F910F900BBE0F900FBE03
S11305C00F901F9018951F920F920FB60F9211243F
S11305D00BB60F920F931F932F933F934F935F93F9
S11305E06F937F938F939F93AF93BF93EF93FF93F7
S11305F085B78F7D85BFA895A0913802E1E0EA0F09
S1130600E09338028CB1B0E0AF5BBD4F8C93F0E067
S1130610E05CFD4F80818E3209F062C08091C70F8B
S1130620882391F1809141028053893008F056C0AB
S11306308BE791E008DFA0914102B0E0D097AA0FC8
S1130640BB1FAA0FBB1FAA0FBB1F20E432E44FE05D
S113065050E0C2D18B019C01992324F401501C4F1A
S11306602F4F3F4FD901C801072E7AE0B595A795C2
S1130670979587957A95D1F7702D90933A02809348
S113068039021092C70F2AC08091C50F882381F0C8
S1130690809141028053893008F58BE791E0D3DEE5
S11306A08091410280538093C60F1092C50F16C0EB
S11306B080914102823341F0833351F0813359F404
S11306C0789480E0E8DE0AC0789481E0E4DE06C035
S11306D0CDDD41DF03C084E891E0B5DE109238023D
S11306E0FF91EF91BF91AF919F918F917F916F9106
S11306F05F914F913F912F911F910F910F900BBEDE
S11307000F900FBE0F901F901895CF93DF93C82FB3
S1130710CDDDCC233CF4C0933C0281E080933B02CA
S11307204ADD3AC081E06EDDD0913C02DD23D4F491
S11307308C2FF3DC8F3F71F4C07EC03249F48D2FCF
S11307408F71ABDD10923B0280E4C7DCAFDD24C0C7
S113075002DF22C010923B028AEAA8DD80EEBDDCF3
S1130760A5DD1AC08C2FCFDC8F3F89F4C07EC03446
S113077029F410923B0280E045DD0EC0C03E61F4D6
S113078080913B02813041F48D2F90DD05C08BEBCD
S11307908DDD80EEA2DC8ADDDF91CF9108951F927A
S11307A00F920FB60F9211240BB60F922F933F9313
S11307B04F935F936F937F938F939F93AF93BF9365
S11307C0EF93FF9385B78F7D85BFE091340281E07D
S11307D08E0F8093340290919C00F0E0E15CFD4F19
S11307E09083823039F4109234028FE392E0F9DD81
S11307F090E08BDFFF91EF91BF91AF919F918F912B
S11308007F916F915F914F913F912F910F900BBE0C
S11308100F900FBE0F901F901895E19B08C0EFEC4E
S1130820F7E03197F1F700C00000E199F8CF1FBA63
S11308308EBB81E08CBB8DB30895E19B08C0EFECC7
S1130840F7E03197F1F700C00000E199F8CF1FBA43
S11308508EBB6DBB84E08CBB82E08CBB08950F9390
S11308601F93CF93DF9380E090E0D7DF8093C70F8F
S11308708093C50FD1E0C0E000E010E002C0CF5F7C
S1130880DF5F8C2F90E00196C8DF082BC11103C0F5
S1130890102F0027F4CFD23090F382E090E0BDDF38
S11308A08093C60F8091C70F882361F084E991E09B
S11308B0CADD10923A02109239028091C70F811159
S11308C006C00DC010933A020093390208C085B7E0
S11308D0806285BF88958091C70F8111F8CF809180
S11308E0C50F882379F088ED91E0ADDD8091C50FC7
S11308F0882341F085B7806285BF88958091C50FB4
S11309008111F8CF83E292E09EDD61E080E090E027
S113091094DF60913A0281E090E08FDF60913902C8
S113092082E090E08ADF6091C60F83E090E085DF8B
S11309308091390290913A02919581959109909311
S11309403A0280933902DF91CF911F910F9108955C
S1130950E091C60F8E2F90E089309105D8F4FC0108
S1130960EA5BFF4F30C082E007C084E005C085E049
S113097003C086E001C087E0C09A886098E10FB6A2
S1130980F894A89591BD0FBE81BD089581E0F4CF80
S113099083E0F2CF089560E08FEF90E04EDF60E0F7
S11309A081E090E04ADF60E082E090E046DF5EDCD8
S11309B056DFD1DD80E091E046DDCADF85B7806295
S11309C085BF8895FACFEE0FFF1F0024001C0BBED5
S11309D00790F691E02D0994B7FF04C003D0821B61
S11309E0930B089509D0A59F900DB49F900DA49FDB
S11309F0800D911D11240895A29FB001B39FC001E1
S1130A00A39F700D811D1124911DB29F700D811D36
S1130A101124911D0895FB01DC0101900D92002029
S10B0A20E1F70895F894FFCFFB
S1130A280D456E7465722063686F6963652028617B
S1130A386E6420706572696F64293A20312D4D65A2
S1130A486D2044756D7020322D4C61737420456E91
S1130A5874727920332D52657374617274200000A6
S1130A684E6F206461746120005354415254494EBE
S1130A7847204D454D2044554D503A20004C617354
S1130A887420456E7472793A200052455345545483
S1130A98494E472053454E534F520052454345490A
S1130AA856454400496E76616C696420636F6D6DC8
S1130AB8616E6400506C6561736520656E7465725F
S1130AC8207468652074696D656F75742064757227
S1130AD86174696F6E2077616E74656420696E2035
S1130AE828302D38297320283020746F20646973C6
S1130AF861626C65293A2000506C656173652065F4
S1130B086E74657220746865207761746368646FB5
S1130B18672074696D6572206475726174696F6E9B
S1130B282077616E74656420696E2028302D392918
S1130B387320283020746F2064697361626C65299E
S1130B483A2000536176696E672073657474696E20
S1070B5867730000BB
S9030000FC
