:1000000045C0000053C0000051C000004FC00000B8
:100010004DC000004BC0000049C0000047C00000B8
:1000200045C0000043C0000041C000003FC00000C8
:100030003DC000003BC0000039C0000037C00000D8
:1000400035C0000033C0000031C000002FC00000E8
:100050002DC000002BC0000029C0000027C00000F8
:1000600025C0000023C0000021C000001FC0000008
:100070001DC000001BC0000019C0000017C0000018
:1000800015C0000013C0000011C0000011241FBEE5
:10009000CFEFD0E1DEBFCDBF21E0A0E0B1E001C0F5
:1000A0001D92A230B207E1F74AD051C0A9CF982FD4
:1000B000907E96959695903210F025E3922720E059
:1000C00030E007C0990F903210F045E394272F5F7E
:1000D0003F4F22303105B4F3892B089580E885BF66
:1000E00026E0209395001092900093E399B988ED53
:1000F0008AB920939D001092980090939900809364
:100100009A0078940895D3DF09C02FEF30E792E08A
:10011000215030409040E1F700C0000090919B00DA
:1001200095FFF3CF80939C00089580E0ECDF80E0A2
:10013000BEDF8093010181E0809300010895CEDF4E
:10014000F4DF85B7806285BF78948895FACFF894FC
:02015000FFCFDF
:00000001FF
