S0120000557365724D6F64756C652E737265630D
S113000045C00000EAC0000056C0000054C0000013
S113001052C0000050C000004EC000004CC00000A0
S11300204AC0000048C0000046C0000044C00000B0
S113003042C0000040C000003EC000003CC00000C0
S11300403AC0000038C0000036C0000034C00000D0
S113005032C0000030C000002EC000002CC00000E0
S11300602AC0000028C0000026C0000024C00000F0
S113007022C0000020C000001EC000001CC0000000
S11300801AC0000018C0000016C0000011241FBED2
S1130090CFEFD0E1DEBFCDBF11E0A0E0B1E0E2E5FB
S11300A0F2E000E00BBF02C007900D92AC30B10744
S11300B0D9F7CBD0CCC0A4CF83B38E70823031F0CB
S11300C0843011F080E003C081E001C082E090E060
S11300D038C045B3692F70E06C5F7F4F21E030E09A
S11300E0F90102C0EE0FFF1F6A95E2F7BF01AE2FC0
S11300F05E2F5095452345BBEFE0F7E23197F1F7CA
S113010000C0000043B3E82FF0E0319602C0220F94
S1130110331FEA95E2F750E04223532320953095AC
S11301204217530721F425B3A22BA5BB0CC0EFE063
S1130130F7E23197F1F700C0000025B3622B65BBED
S11301409F5F943030F2F0E18F9F90011124892F4A
S1130150822B089583B982B3806882BB8FE891E0D3
S11301600197F1F700C0000082B38F7782BB8FE85C
S113017091E00197F1F700C00000089592B39F7DCC
S113018092BBE8CF089586E080939D00109298007A
S113019083E38093990088E980939A0078948FEFA1
S11301A082B980EE81BB88E3E9DF8CE0E7DF86E09B
S11301B0E5DF80EF84BB85BB81E089BF089581E0E2
S11301C0DDDF8FE097E20197F1F700C000000895AA
S11301D092B3906292BBBECF08951F920F920FB656
S11301E00F9211240BB60F922F933F934F935F936B
S11301F06F937F938F939F93AF93BF93EF93FF93EB
S1130200DEDF5ADF282F2F7082958F7030E0F901DE
S1130210EE0FFF1FE20FF31FE050FF4FE80FF11D39
S11302208081D6DFFF91EF91BF91AF919F918F9124
S11302307F916F915F914F913F912F910F900BBEE2
S11302400F900FBE0F901F9018959DDFFFCFF8946D
S1050250FFCFDA
S10F02523132333435363738392E30233E
S9030000FC
